{
  "contractName": "Crowdfunding",
  "abi": [
    {
      "anonymous": false,
      "inputs": [
        {
          "indexed": false,
          "internalType": "uint256",
          "name": "campaignId",
          "type": "uint256"
        },
        {
          "indexed": false,
          "internalType": "address",
          "name": "creator",
          "type": "address"
        },
        {
          "indexed": false,
          "internalType": "string",
          "name": "title",
          "type": "string"
        },
        {
          "indexed": false,
          "internalType": "uint256",
          "name": "goal",
          "type": "uint256"
        }
      ],
      "name": "CampaignCreated",
      "type": "event"
    },
    {
      "anonymous": false,
      "inputs": [
        {
          "indexed": false,
          "internalType": "uint256",
          "name": "campaignId",
          "type": "uint256"
        },
        {
          "indexed": false,
          "internalType": "address",
          "name": "donor",
          "type": "address"
        },
        {
          "indexed": false,
          "internalType": "uint256",
          "name": "amount",
          "type": "uint256"
        }
      ],
      "name": "DonationReceived",
      "type": "event"
    },
    {
      "anonymous": false,
      "inputs": [
        {
          "indexed": false,
          "internalType": "uint256",
          "name": "campaignId",
          "type": "uint256"
        },
        {
          "indexed": false,
          "internalType": "uint256",
          "name": "amount",
          "type": "uint256"
        }
      ],
      "name": "FundsReleased",
      "type": "event"
    },
    {
      "inputs": [],
      "name": "campaignCount",
      "outputs": [
        {
          "internalType": "uint256",
          "name": "",
          "type": "uint256"
        }
      ],
      "stateMutability": "view",
      "type": "function",
      "constant": true
    },
    {
      "inputs": [
        {
          "internalType": "uint256",
          "name": "",
          "type": "uint256"
        }
      ],
      "name": "campaigns",
      "outputs": [
        {
          "internalType": "address payable",
          "name": "creator",
          "type": "address"
        },
        {
          "internalType": "string",
          "name": "title",
          "type": "string"
        },
        {
          "internalType": "string",
          "name": "description",
          "type": "string"
        },
        {
          "internalType": "uint256",
          "name": "goal",
          "type": "uint256"
        },
        {
          "internalType": "uint256",
          "name": "raisedAmount",
          "type": "uint256"
        },
        {
          "internalType": "uint256",
          "name": "deadline",
          "type": "uint256"
        },
        {
          "internalType": "bool",
          "name": "completed",
          "type": "bool"
        },
        {
          "internalType": "uint256",
          "name": "milestoneAmount",
          "type": "uint256"
        }
      ],
      "stateMutability": "view",
      "type": "function",
      "constant": true
    },
    {
      "inputs": [
        {
          "internalType": "string",
          "name": "_title",
          "type": "string"
        },
        {
          "internalType": "string",
          "name": "_description",
          "type": "string"
        },
        {
          "internalType": "uint256",
          "name": "_goal",
          "type": "uint256"
        },
        {
          "internalType": "uint256",
          "name": "_deadline",
          "type": "uint256"
        },
        {
          "internalType": "uint256",
          "name": "_milestoneAmount",
          "type": "uint256"
        }
      ],
      "name": "createCampaign",
      "outputs": [],
      "stateMutability": "nonpayable",
      "type": "function"
    },
    {
      "inputs": [
        {
          "internalType": "uint256",
          "name": "_campaignId",
          "type": "uint256"
        }
      ],
      "name": "donate",
      "outputs": [],
      "stateMutability": "payable",
      "type": "function",
      "payable": true
    },
    {
      "inputs": [
        {
          "internalType": "uint256",
          "name": "_campaignId",
          "type": "uint256"
        }
      ],
      "name": "releaseFunds",
      "outputs": [],
      "stateMutability": "nonpayable",
      "type": "function"
    }
  ],
  "bytecode": "0x6080604052600060015534801561001557600080fd5b50611372806100256000396000f3fe60806040526004361061004a5760003560e01c8063141961bc1461004f5780634d68282f146100935780637274e30d146100bc578063b5c89219146100e7578063f14faf6f14610110575b600080fd5b34801561005b57600080fd5b5061007660048036038101906100719190610815565b61012c565b60405161008a98979695949392919061093d565b60405180910390f35b34801561009f57600080fd5b506100ba60048036038101906100b59190610815565b6102b1565b005b3480156100c857600080fd5b506100d16104c3565b6040516100de91906109c9565b60405180910390f35b3480156100f357600080fd5b5061010e60048036038101906101099190610b19565b6104c9565b005b61012a60048036038101906101259190610815565b6106d2565b005b60006020528060005260406000206000915090508060000160009054906101000a900473ffffffffffffffffffffffffffffffffffffffff169080600101805461017590610bfb565b80601f01602080910402602001604051908101604052809291908181526020018280546101a190610bfb565b80156101ee5780601f106101c3576101008083540402835291602001916101ee565b820191906000526020600020905b8154815290600101906020018083116101d157829003601f168201915b50505050509080600201805461020390610bfb565b80601f016020809104026020016040519081016040528092919081815260200182805461022f90610bfb565b801561027c5780601f106102515761010080835404028352916020019161027c565b820191906000526020600020905b81548152906001019060200180831161025f57829003601f168201915b5050505050908060030154908060040154908060050154908060060160009054906101000a900460ff16908060070154905088565b600080600083815260200190815260200160002090508060000160009054906101000a900473ffffffffffffffffffffffffffffffffffffffff1673ffffffffffffffffffffffffffffffffffffffff163373ffffffffffffffffffffffffffffffffffffffff1614610359576040517f08c379a000000000000000000000000000000000000000000000000000000000815260040161035090610c78565b60405180910390fd5b8060070154816004015410156103a4576040517f08c379a000000000000000000000000000000000000000000000000000000000815260040161039b90610ce4565b60405180910390fd5b8060060160009054906101000a900460ff16156103f6576040517f08c379a00000000000000000000000000000000000000000000000000000000081526004016103ed90610d50565b60405180910390fd5b60018160060160006101000a81548160ff0219169083151502179055508060000160009054906101000a900473ffffffffffffffffffffffffffffffffffffffff1673ffffffffffffffffffffffffffffffffffffffff166108fc82600401549081150290604051600060405180830381858888f19350505050158015610481573d6000803e3d6000fd5b507f80230996023d69b50793fa73f1919127c9d8e741d3989743c479169f22e7a2888282600401546040516104b7929190610d70565b60405180910390a15050565b60015481565b6000831161050c576040517f08c379a000000000000000000000000000000000000000000000000000000000815260040161050390610de5565b60405180910390fd5b42821161054e576040517f08c379a000000000000000000000000000000000000000000000000000000000815260040161054590610e51565b60405180910390fd5b6001600081548092919061056190610ea0565b91905055506040518061010001604052803373ffffffffffffffffffffffffffffffffffffffff1681526020018681526020018581526020018481526020016000815260200183815260200160001515815260200182815250600080600154815260200190815260200160002060008201518160000160006101000a81548173ffffffffffffffffffffffffffffffffffffffff021916908373ffffffffffffffffffffffffffffffffffffffff160217905550602082015181600101908161062a9190611094565b5060408201518160020190816106409190611094565b50606082015181600301556080820151816004015560a0820151816005015560c08201518160060160006101000a81548160ff02191690831515021790555060e082015181600701559050507f825fb10f7650ed27414d6f86acdf7d5946927d9b25001f045f1a2435deec02fe6001543387866040516106c39493929190611187565b60405180910390a15050505050565b600080600083815260200190815260200160002090508060050154421061072e576040517f08c379a00000000000000000000000000000000000000000000000000000000081526004016107259061121f565b60405180910390fd5b60003411610771576040517f08c379a0000000000000000000000000000000000000000000000000000000008152600401610768906112b1565b60405180910390fd5b3481600401600082825461078591906112d1565b925050819055507f0b5b4c52969ff7329ecf7ee536409fda87812b15a8622bc6e8cdeab3aee14a268233346040516107bf93929190611305565b60405180910390a15050565b6000604051905090565b600080fd5b600080fd5b6000819050919050565b6107f2816107df565b81146107fd57600080fd5b50565b60008135905061080f816107e9565b92915050565b60006020828403121561082b5761082a6107d5565b5b600061083984828501610800565b91505092915050565b600073ffffffffffffffffffffffffffffffffffffffff82169050919050565b600061086d82610842565b9050919050565b61087d81610862565b82525050565b600081519050919050565b600082825260208201905092915050565b60005b838110156108bd5780820151818401526020810190506108a2565b60008484015250505050565b6000601f19601f8301169050919050565b60006108e582610883565b6108ef818561088e565b93506108ff81856020860161089f565b610908816108c9565b840191505092915050565b61091c816107df565b82525050565b60008115159050919050565b61093781610922565b82525050565b600061010082019050610953600083018b610874565b8181036020830152610965818a6108da565b9050818103604083015261097981896108da565b90506109886060830188610913565b6109956080830187610913565b6109a260a0830186610913565b6109af60c083018561092e565b6109bc60e0830184610913565b9998505050505050505050565b60006020820190506109de6000830184610913565b92915050565b600080fd5b600080fd5b7f4e487b7100000000000000000000000000000000000000000000000000000000600052604160045260246000fd5b610a26826108c9565b810181811067ffffffffffffffff82111715610a4557610a446109ee565b5b80604052505050565b6000610a586107cb565b9050610a648282610a1d565b919050565b600067ffffffffffffffff821115610a8457610a836109ee565b5b610a8d826108c9565b9050602081019050919050565b82818337600083830152505050565b6000610abc610ab784610a69565b610a4e565b905082815260208101848484011115610ad857610ad76109e9565b5b610ae3848285610a9a565b509392505050565b600082601f830112610b0057610aff6109e4565b5b8135610b10848260208601610aa9565b91505092915050565b600080600080600060a08688031215610b3557610b346107d5565b5b600086013567ffffffffffffffff811115610b5357610b526107da565b5b610b5f88828901610aeb565b955050602086013567ffffffffffffffff811115610b8057610b7f6107da565b5b610b8c88828901610aeb565b9450506040610b9d88828901610800565b9350506060610bae88828901610800565b9250506080610bbf88828901610800565b9150509295509295909350565b7f4e487b7100000000000000000000000000000000000000000000000000000000600052602260045260246000fd5b60006002820490506001821680610c1357607f821691505b602082108103610c2657610c25610bcc565b5b50919050565b7f4f6e6c792063726561746f722063616e2072656c656173652066756e64730000600082015250565b6000610c62601e8361088e565b9150610c6d82610c2c565b602082019050919050565b60006020820190508181036000830152610c9181610c55565b9050919050565b7f4d696c6573746f6e65206e6f7420726561636865640000000000000000000000600082015250565b6000610cce60158361088e565b9150610cd982610c98565b602082019050919050565b60006020820190508181036000830152610cfd81610cc1565b9050919050565b7f46756e647320616c72656164792072656c656173656400000000000000000000600082015250565b6000610d3a60168361088e565b9150610d4582610d04565b602082019050919050565b60006020820190508181036000830152610d6981610d2d565b9050919050565b6000604082019050610d856000830185610913565b610d926020830184610913565b9392505050565b7f476f616c2073686f756c642062652067726561746572207468616e2030000000600082015250565b6000610dcf601d8361088e565b9150610dda82610d99565b602082019050919050565b60006020820190508181036000830152610dfe81610dc2565b9050919050565b7f446561646c696e652073686f756c6420626520696e2074686520667574757265600082015250565b6000610e3b60208361088e565b9150610e4682610e05565b602082019050919050565b60006020820190508181036000830152610e6a81610e2e565b9050919050565b7f4e487b7100000000000000000000000000000000000000000000000000000000600052601160045260246000fd5b6000610eab826107df565b91507fffffffffffffffffffffffffffffffffffffffffffffffffffffffffffffffff8203610edd57610edc610e71565b5b600182019050919050565b60008190508160005260206000209050919050565b60006020601f8301049050919050565b600082821b905092915050565b600060088302610f4a7fffffffffffffffffffffffffffffffffffffffffffffffffffffffffffffffff82610f0d565b610f548683610f0d565b95508019841693508086168417925050509392505050565b6000819050919050565b6000610f91610f8c610f87846107df565b610f6c565b6107df565b9050919050565b6000819050919050565b610fab83610f76565b610fbf610fb782610f98565b848454610f1a565b825550505050565b600090565b610fd4610fc7565b610fdf818484610fa2565b505050565b5b8181101561100357610ff8600082610fcc565b600181019050610fe5565b5050565b601f8211156110485761101981610ee8565b61102284610efd565b81016020851015611031578190505b61104561103d85610efd565b830182610fe4565b50505b505050565b600082821c905092915050565b600061106b6000198460080261104d565b1980831691505092915050565b6000611084838361105a565b9150826002028217905092915050565b61109d82610883565b67ffffffffffffffff8111156110b6576110b56109ee565b5b6110c08254610bfb565b6110cb828285611007565b600060209050601f8311600181146110fe57600084156110ec578287015190505b6110f68582611078565b86555061115e565b601f19841661110c86610ee8565b60005b828110156111345784890151825560018201915060208501945060208101905061110f565b86831015611151578489015161114d601f89168261105a565b8355505b6001600288020188555050505b505050505050565b600061117182610842565b9050919050565b61118181611166565b82525050565b600060808201905061119c6000830187610913565b6111a96020830186611178565b81810360408301526111bb81856108da565b90506111ca6060830184610913565b95945050505050565b7f43616d706169676e206973206f76657200000000000000000000000000000000600082015250565b600061120960108361088e565b9150611214826111d3565b602082019050919050565b60006020820190508181036000830152611238816111fc565b9050919050565b7f446f6e6174696f6e2073686f756c642062652067726561746572207468616e2060008201527f3000000000000000000000000000000000000000000000000000000000000000602082015250565b600061129b60218361088e565b91506112a68261123f565b604082019050919050565b600060208201905081810360008301526112ca8161128e565b9050919050565b60006112dc826107df565b91506112e7836107df565b92508282019050808211156112ff576112fe610e71565b5b92915050565b600060608201905061131a6000830186610913565b6113276020830185611178565b6113346040830184610913565b94935050505056fea264697066735822122091724bf30cb6b96dbae9c3df383b425ecfa1fe8928d0c3252bf6b9ac02be6b3064736f6c63430008130033",
  "immutableReferences": {},
  "source": "// SPDX-License-Identifier: MIT\r\npragma solidity ^0.8.19;\r\n\r\ncontract Crowdfunding {\r\n    struct Campaign {\r\n        address payable creator;\r\n        string title;\r\n        string description;\r\n        uint goal;\r\n        uint raisedAmount;\r\n        uint deadline;\r\n        bool completed;\r\n        uint milestoneAmount;\r\n    }\r\n\r\n    mapping(uint => Campaign) public campaigns;\r\n    uint public campaignCount = 0;\r\n\r\n    event CampaignCreated(uint campaignId, address creator, string title, uint goal);\r\n    event DonationReceived(uint campaignId, address donor, uint amount);\r\n    event FundsReleased(uint campaignId, uint amount);\r\n\r\n    function createCampaign(\r\n        string memory _title,\r\n        string memory _description,\r\n        uint _goal,\r\n        uint _deadline,\r\n        uint _milestoneAmount\r\n    ) public {\r\n        require(_goal > 0, \"Goal should be greater than 0\");\r\n        require(_deadline > block.timestamp, \"Deadline should be in the future\");\r\n\r\n        campaignCount++;\r\n        campaigns[campaignCount] = Campaign(\r\n            payable(msg.sender),\r\n            _title,\r\n            _description,\r\n            _goal,\r\n            0,\r\n            _deadline,\r\n            false,\r\n            _milestoneAmount\r\n        );\r\n\r\n        emit CampaignCreated(campaignCount, msg.sender, _title, _goal);\r\n    }\r\n\r\n    function donate(uint _campaignId) public payable {\r\n        Campaign storage campaign = campaigns[_campaignId];\r\n        require(block.timestamp < campaign.deadline, \"Campaign is over\");\r\n        require(msg.value > 0, \"Donation should be greater than 0\");\r\n\r\n        campaign.raisedAmount += msg.value;\r\n        emit DonationReceived(_campaignId, msg.sender, msg.value);\r\n    }\r\n\r\n    function releaseFunds(uint _campaignId) public {\r\n        Campaign storage campaign = campaigns[_campaignId];\r\n        require(msg.sender == campaign.creator, \"Only creator can release funds\");\r\n        require(campaign.raisedAmount >= campaign.milestoneAmount, \"Milestone not reached\");\r\n        require(!campaign.completed, \"Funds already released\");\r\n\r\n        campaign.completed = true;\r\n        campaign.creator.transfer(campaign.raisedAmount);\r\n\r\n        emit FundsReleased(_campaignId, campaign.raisedAmount);\r\n    }\r\n}\r\n",
  "sourcePath": "C:\\Users\\admin\\Documents\\DApp\\crowdfunding-platform\\contracts\\Crowdfunding.sol",
  "compiler": {
    "name": "solc",
    "version": "0.8.19+commit.7dd6d404.Emscripten.clang"
  },
  "schemaVersion": "3.4.16",
  "updatedAt": "2024-12-16T07:49:59.753Z",
  "networkType": "ethereum",
  "devdoc": {
    "kind": "dev",
    "methods": {},
    "version": 1
  },
  "userdoc": {
    "kind": "user",
    "methods": {},
    "version": 1
  }
}